:0400000089EF00F094
:0C000800FACF4CF0FBCF4DF0CDED00F036
:10001800D8CF3BF0E8CF3CF0E0CF3DF0FACF3EF050
:10002800FBCF3FF0E9CF40F0EACF41F0E1CF42F01B
:10003800E2CF43F0D9CF44F0DACF45F0F3CF46F022
:10004800F4CF47F0F6CF48F0F7CF49F0F8CF4AF0B1
:10005800F5CF4BF0F2A001D001D018D0F290335078
:10006800010D290EF324D96E000EF420DA6E81CF2B
:10007800DFFF332A33C034F0356A000E376E0A0EBC
:10008800366E0EEC01F03450336E00D0F2A201D07F
:1000980001D018D0F2923350010D290EF324D96EF5
:1000A800000EF420DA6E81CFDFFF332A33C034F03C
:1000B800356A000E376E0A0E366E0EEC01F03450BB
:1000C800336E00D04BC0F5FF4AC0F8FF49C0F7FFB8
:1000D80048C0F6FF47C0F4FF46C0F3FF45C0DAFF4B
:1000E80044C0D9FF43C0E2FF42C0E1FF41C0EAFF7C
:1000F80040C0E9FF3FC0FBFF3EC0FAFF3DC0E0FF44
:100108003CC0E8FF3BC0D8FF10004CEF01F05C6E2C
:10011800000E5D6E5C500DD05D50010D0101000EAA
:10012800F324D96E0101010EF420DA6E000EDF6EA1
:100138005D2AC70E5D64F0D75C6E000E5E6E5C5083
:100148000DD05E50020D010EF324D96E000EF4207E
:10015800DA6E000EDE6E000EDD6E5E2A090E5E643B
:10016800F0D75C6E000E5F6E5C500BD05F50010DD7
:10017800290EF324D96E000EF420DA6E000EDF6E1D
:100188005F2A090E5F64F2D75BEC01F08CEC01F09A
:1001980012000600E9CF4EF0EACF4FF0E1CF50F061
:1001A800E2CF51F0D9CF52F0DACF53F0F3CF54F079
:1001B800F4CF55F0F6CF56F0F7CF57F0F8CF58F008
:1001C800F5CF59F0F2A401D001D001D0F2949EA24B
:1001D80001D001D002D09E9200D059C0F5FF58C07E
:1001E800F8FF57C0F7FF56C0F6FF55C0F4FF54C0DC
:1001F800F3FF53C0DAFF52C0D9FF51C0E2FF50C02D
:10020800E1FF4FC0EAFF4EC0E9FF4DC0FBFF4CC005
:10021800FAFF1100386E000E3A6E385035AE08D02D
:10022800346C351ED8B0352A386E010E3A6E385007
:1002380037AE04D0366C371ED8B0372A3750361050
:10024800D8B41AD0386E010E396E385004D0D89010
:1002580036363736392A37AEFAD73650345C375007
:100268003558D8A004D03650345E3750355AD89017
:1002780037323632392EF1D73A50D8B404D0346CEC
:10028800351ED8B0352A34C034F035C035F01200E8
:1002980001EE00F0C80EEE6AE806FDE100EE01F09E
:1002A800330EEE6AE806FDE1000172EF01F08FEC13
:1002B80001F083EC01F07EEC01F068EC01F079ECE0
:1002C80001F088EC01F012005A6E000E5B6E5A5075
:1002D800CC685BC0CAFF9E929D8212008BEC00F036
:1002E80094EC01F092EC01F0FFD79368F19EF29044
:1002F800F2861200050ED56EF294F28A1200D08EA4
:100308009F909F92F1901200F19CF292F288120055
:10031800F28EF28C1200F29EF29C1200CA94120025
:04032800D58E12005C
:020000040020DA
:08000000FFFFFFFFFFFFFFFF00
:020000040030CA
:0E00000027C6181EFF8181FF0FC00FE00F40C2
:00000001FF
