:0400000053EF00F0CA
:10000800FACF12F0FBCF13F0E9CF14F0A6ED00F011
:10001800D8CF01F0E8CF02F0E0CF03F0FACF04F038
:10002800FBCF05F0E9CF06F0EACF07F0E1CF08F003
:10003800E2CF09F0D9CF0AF0DACF0BF0F3CF0CF00A
:10004800F4CF0DF0F6CF0EF0F7CF0FF0F8CF10F099
:10005800F5CF11F09E509E5011C0F5FF10C0F8FF6B
:100068000FC0F7FF0EC0F6FF0DC0F4FF0CC0F3FF82
:100078000BC0DAFF0AC0D9FF09C0E2FF08C0E1FFE0
:1000880007C0EAFF06C0E9FF05C0FBFF04C0FAFF8E
:1000980003C0E0FF02C0E8FF01C0D8FF1000FFEF77
:1000A80000F016EC01F0000E956E000E226E38D0AE
:1000B800836800F000F000F000F000F000F000F0BD
:1000C80000F02250010D0001600EF324D96E0001EA
:1000D800000EF420DA6EDF50836E00F000F000F0BE
:1000E80000F000F000F000F000F000F000F000F088
:1000F80000F000F000F000F000F000F000F0000E5A
:10010800836E00F000F000F000F000F000F000F066
:1001180000F000F000F000F000F000F000F0222AFB
:10012800770E2264C5D7010E216E0A0E206E03D009
:100138002006D8A0210621502010D8A4F9D713EC06
:1001480001F012000600EACF15F0E1CF16F0E2CF79
:1001580017F0D9CF18F0DACF19F0F3CF1AF0F4CF9F
:100168001BF0F6CF1CF0F7CF1DF0F8CF1EF0F5CF3F
:100178001FF01FC0F5FF1EC0F8FF1DC0F7FF1CC011
:10018800F6FF1BC0F4FF1AC0F3FF19C0DAFF18C04E
:10019800D9FF17C0E2FF16C0E1FF15C0EAFF14C07F
:1001A800E9FF13C0FBFF12C0FAFF1100000E206E1A
:1001B8000DD02050010D0001600EF324D96E00010E
:1001C800000EF420DA6E000EDF6E202A770E20640F
:1001D800F0D7000E216E0BD02150010D230EF32411
:1001E800D96E000EF420DA6E000EDF6E212A770E2B
:1001F8002164F2D7120000EE60F0780EEE6AE8068D
:10020800FDE100EE23F00A0EEE6AE806FDE10001CA
:100218000EEF01F0DAEC00F055EC00F0FDD7F28EAD
:0A022800F28C1200F29EF29C12000C
:020000040020DA
:08000000FFFFFFFFFFFFFFFF00
:020000040030CA
:0E00000027C6181EFF8181FF0FC00FE00F40C2
:00000001FF
