:0400000083EF00F09A
:10000800FACF4BF0FBCF4CF0E9CF4DF005ED01F006
:10001800D8CF3AF0E8CF3BF0E0CF3CF0FACF3DF054
:10002800FBCF3EF0E9CF3FF0EACF40F0E1CF41F01F
:10003800E2CF42F0D9CF43F0DACF44F0F3CF45F026
:10004800F4CF46F0F6CF47F0F7CF48F0F8CF49F0B5
:10005800F5CF4AF0F2A017D0F2903350010D290ED7
:10006800F324D96E000EF420DA6E81CFDFFF332A35
:1000780033C034F0356A000E376E0A0E366E85ECE2
:1000880000F03450336EF2A217D0F2923350010DC3
:10009800290EF324D96E000EF420DA6E81CFDFFF2B
:1000A800332A33C034F0356A000E376E0A0E366EC6
:1000B80085EC00F03450336E4AC0F5FF49C0F8FFB4
:1000C80048C0F7FF47C0F6FF46C0F4FF45C0F3FF3E
:1000D80044C0DAFF43C0D9FF42C0E2FF41C0E1FF9C
:1000E80040C0EAFF3FC0E9FF3EC0FBFF3DC0FAFF4A
:1000F8003CC0E0FF3BC0E8FF3AC0D8FF10003DEF2E
:1001080001F0000E396E3550800AF36E800EF35CF4
:10011800000ED8B4345CD8B006D0346C351ED8B0D4
:10012800352A010E396E3750800AF36E800EF35C63
:10013800000ED8B4365CD8B004D0366C371ED8B0B0
:10014800372A37503610D8B418D0010E386E04D07C
:10015800D89036363736382A37AEFAD73650345C28
:1001680037503558D8A004D03650345E3750355AF9
:10017800D89037323632382EF1D73950D8B404D027
:10018800346C351ED8B0352A34C034F035C035F05B
:100198001200000E596E0DD05950010D0101000ECC
:1001A800F324D96E0101010EF420DA6E000EDF6E21
:1001B800592AC70E5964F0D7000E5A6E0DD05A50FE
:1001C800020D010EF324D96E000EF420DA6E000E33
:1001D800DE6E000EDD6E5A2A090E5A64F0D7000E44
:1001E8005B6E0BD05B50010D290EF324D96E000E07
:1001F800F420DA6E000EDF6E5B2A090E5B64F2D71C
:1002080012000600EACF4EF0E1CF4FF0E2CF50F0F7
:10021800D9CF51F0DACF52F0F3CF53F0F4CF54F0F6
:10022800F6CF55F0F7CF56F0F8CF57F0F5CF58F096
:100238009EB09E909EB29E9258C0F5FF57C0F8FFA0
:1002480056C0F7FF55C0F6FF54C0F4FF53C0F3FF84
:1002580052C0DAFF51C0D9FF50C0E2FF4FC0E1FFE2
:100268004EC0EAFF4DC0E9FF4CC0FBFF4BC0FAFF90
:10027800110001EE00F0C80EEE6AE806FDE100EE9E
:1002880001F0330EEE6AE806FDE100014CEF01F0E3
:0E029800CDEC00F051EC01F0FFD7CA8412004B
:020000040020DA
:08000000FFFFFFFFFFFFFFFF00
:020000040030CA
:0E00000027C6181EFF8181FF0FC00FE00F40C2
:00000001FF
