:0400000094EF3FF04A
:107F1E009DEC3FF0B1EC3FF0FDD700EE60F0780E37
:107F2E00EE6AE806FDE100018FEF3FF0000E016EF4
:107F3E000DD00150010D0001600EF324D96E000129
:107F4E00000EF420DA6E000EDF6E012A770E016449
:107F5E00F0D71200F29E000E956E000E036E38D012
:107F6E00836800F000F000F000F000F000F000F088
:107F7E0000F00350010D0001600EF324D96E0001D4
:107F8E00000EF420DA6EDF50836E00F000F000F089
:107F9E0000F000F000F000F000F000F000F000F053
:107FAE0000F000F000F000F000F000F000F0000E25
:107FBE00836E00F000F000F000F000F000F000F032
:107FCE0000F000F000F000F000F000F000F0032AE6
:107FDE00770E0364C5D7010E026E0A0E016E03D032
:107FEE000106D8A0020602500110D8A4F9D7F28ECD
:027FFE0012006F
:020000040020DA
:08000000FFFFFFFFFFFFFFFF00
:020000040030CA
:0E00000027C6181EFF8181FF0FC00FE00F40C2
:00000001FF
