:0400000092EF3FF04C
:107F1A009BEC3FF0B1EC3FF0FDD700EE60F0780E3D
:107F2A00EE6AE806FDE100018DEF3FF0016E000EFA
:107F3A00026E01500DD00250010D0001600EF324B3
:107F4A00D96E0001000EF420DA6E000EDF6E022AEE
:107F5A00770E0264F0D71200000E956E016E000EC5
:107F6A00046E015038D0816800F000F000F000F093
:107F7A0000F000F000F000F00450010D0001600E66
:107F8A00F324D96E0001000EF420DA6EDF50816E00
:107F9A0000F000F000F000F000F000F000F000F057
:107FAA0000F000F000F000F000F000F000F000F047
:107FBA0000F000F0000E816E00F000F000F000F01A
:107FCA0000F000F000F000F000F000F000F000F027
:107FDA0000F000F0042A770E0464C5D7010E036E80
:107FEA002B0E026E03D00206D8A00306035002101D
:067FFA00D8B41200F8D714
:020000040020DA
:08000000FFFFFFFFFFFFFFFF00
:020000040030CA
:0E00000027C6181EFF8181FF0FC00FE00F40C2
:00000001FF
