:0400000073EF00F0AA
:0C000800FACF4CF0FBCF4DF075ED00F08E
:10001800D8CF3BF0E8CF3CF0E0CF3DF0FACF3EF050
:10002800FBCF3FF0E9CF40F0EACF41F0E1CF42F01B
:10003800E2CF43F0D9CF44F0DACF45F0F3CF46F022
:10004800F4CF47F0F6CF48F0F7CF49F0F8CF4AF0B1
:10005800F5CF4BF0F2A001D001D018D0F290335078
:10006800010D290EF324D96E000EF420DA6E81CF2B
:10007800DFFF332A33C034F0356A000E376E0A0EBC
:10008800366EF4EC00F03450336E00D0F2A201D09A
:1000980001D002D0F29200D04BC0F5FF4AC0F8FF61
:1000A80049C0F7FF48C0F6FF47C0F4FF46C0F3FF5A
:1000B80045C0DAFF44C0D9FF43C0E2FF42C0E1FFB8
:1000C80041C0EAFF40C0E9FF3FC0FBFF3EC0FAFF66
:1000D8003DC0E0FF3CC0E8FF3BC0D8FF10006DEF1B
:1000E80001F00600E9CF4EF0EACF4FF0E1CF50F033
:1000F800E2CF51F0D9CF52F0DACF53F0F3CF54F02A
:10010800F4CF55F0F6CF56F0F7CF57F0F8CF58F0B8
:10011800F5CF59F09EA001D001D001D09E909EA2AB
:1001280001D001D002D09E9200D059C0F5FF58C02E
:10013800F8FF57C0F7FF56C0F6FF55C0F4FF54C08C
:10014800F3FF53C0DAFF52C0D9FF51C0E2FF50C0DD
:10015800E1FF4FC0EAFF4EC0E9FF4DC0FBFF4CC0B6
:10016800FAFF11005A6E000E5B6E5A500DD05B50AC
:10017800010D0001600EF324D96E0001000EF42079
:10018800DA6E000EDF6E5B2A770E5B64F0D75A6E6C
:10019800000E5C6E5A500DD05C50020D010EF32417
:1001A800D96E000EF420DA6E000EDE6E000EDD6EE3
:1001B8005C2A090E5C64F0D75A6E000E5D6E5A50C8
:1001C8000BD05D50010D290EF324D96E000EF420DA
:1001D800DA6E000EDF6E5D2A090E5D64F2D712003A
:1001E800386E000E3A6E385035AE08D0346C351E75
:1001F800D8B0352A386E010E3A6E385037AE04D072
:10020800366C371ED8B0372A37503610D8B41AD0C3
:10021800386E010E396E385004D0D89036363736DD
:10022800392A37AEFAD73650345C37503558D8A00B
:1002380004D03650345E3750355AD890373236327B
:10024800392EF1D73A50D8B404D0346C351ED8B012
:10025800352A34C034F035C035F012005A6E000E1D
:100268005B6E5A505A6E000E5C6E5A5084EC01F068
:10027800000E956E5A6E000E5F6E5A5018D0836845
:1002880000F000F000F000F000F000F000F000F0E6
:100298005F50010D0001600EF324D96E0001000EBD
:1002A800F420DA6EDF50836E000E836E5F2A770EBD
:1002B8005F64E5D7010E5E6E0A0E5D6E03D05D06C3
:1002C800D8A05E065E505D10D8A4F9D781EC01F085
:1002D800120000EE60F0780EEE6AE806FDE100EE2E
:1002E80001F0330EEE6AE806FDE100017CEF01F053
:1002F800B6EC00F032EC01F0FDD7F28EF28C120071
:06030800F29EF29C1200BF
:020000040020DA
:08000000FFFFFFFFFFFFFFFF00
:020000040030CA
:0E00000027C6181EFF8181FF0FC00FE00F40C2
:00000001FF
